{
  "contractName": "iCreator",
  "abi": [
    {
      "constant": true,
      "inputs": [],
      "name": "getHolder",
      "outputs": [
        {
          "name": "bh",
          "type": "address"
        }
      ],
      "payable": false,
      "stateMutability": "view",
      "type": "function"
    },
    {
      "constant": true,
      "inputs": [],
      "name": "getVersion",
      "outputs": [
        {
          "name": "_version",
          "type": "uint64"
        }
      ],
      "payable": false,
      "stateMutability": "view",
      "type": "function"
    },
    {
      "constant": true,
      "inputs": [],
      "name": "version",
      "outputs": [
        {
          "name": "",
          "type": "uint64"
        }
      ],
      "payable": false,
      "stateMutability": "view",
      "type": "function"
    },
    {
      "constant": false,
      "inputs": [
        {
          "name": "bh",
          "type": "address"
        }
      ],
      "name": "setHolder",
      "outputs": [],
      "payable": false,
      "stateMutability": "nonpayable",
      "type": "function"
    },
    {
      "constant": true,
      "inputs": [],
      "name": "holder",
      "outputs": [
        {
          "name": "",
          "type": "address"
        }
      ],
      "payable": false,
      "stateMutability": "view",
      "type": "function"
    },
    {
      "inputs": [
        {
          "name": "_holder",
          "type": "address"
        },
        {
          "name": "version",
          "type": "uint64"
        }
      ],
      "payable": false,
      "stateMutability": "nonpayable",
      "type": "constructor"
    },
    {
      "constant": false,
      "inputs": [
        {
          "name": "_curator",
          "type": "address"
        }
      ],
      "name": "createDocumentBuilder",
      "outputs": [
        {
          "name": "_newDocumentBuilder",
          "type": "address"
        }
      ],
      "payable": false,
      "stateMutability": "nonpayable",
      "type": "function"
    }
  ],
  "bytecode": "0x6060604052341561000f57600080fd5b60405160408061115f833981016040528080519060200190919080519060200190919050508181806000806101000a81548167ffffffffffffffff021916908367ffffffffffffffff16021790555081600060086101000a81548173ffffffffffffffffffffffffffffffffffffffff021916908373ffffffffffffffffffffffffffffffffffffffff160217905550505050506110ad806100b26000396000f300606060405260043610610078576000357c0100000000000000000000000000000000000000000000000000000000900463ffffffff1680630c05b3c51461007d5780630d8e6e2c146100d257806354fd4d501461010f5780636f57a5591461014c578063d979f5aa146101c5578063e534155d146101fe575b600080fd5b341561008857600080fd5b610090610253565b604051808273ffffffffffffffffffffffffffffffffffffffff1673ffffffffffffffffffffffffffffffffffffffff16815260200191505060405180910390f35b34156100dd57600080fd5b6100e561027c565b604051808267ffffffffffffffff1667ffffffffffffffff16815260200191505060405180910390f35b341561011a57600080fd5b610122610299565b604051808267ffffffffffffffff1667ffffffffffffffff16815260200191505060405180910390f35b341561015757600080fd5b610183600480803573ffffffffffffffffffffffffffffffffffffffff169060200190919050506102b2565b604051808273ffffffffffffffffffffffffffffffffffffffff1673ffffffffffffffffffffffffffffffffffffffff16815260200191505060405180910390f35b34156101d057600080fd5b6101fc600480803573ffffffffffffffffffffffffffffffffffffffff16906020019091905050610344565b005b341561020957600080fd5b610211610388565b604051808273ffffffffffffffffffffffffffffffffffffffff1673ffffffffffffffffffffffffffffffffffffffff16815260200191505060405180910390f35b60008060089054906101000a900473ffffffffffffffffffffffffffffffffffffffff16905090565b60008060009054906101000a900467ffffffffffffffff16905090565b6000809054906101000a900467ffffffffffffffff1681565b600081306102be6103ae565b808373ffffffffffffffffffffffffffffffffffffffff1673ffffffffffffffffffffffffffffffffffffffff1681526020018273ffffffffffffffffffffffffffffffffffffffff1673ffffffffffffffffffffffffffffffffffffffff16815260200192505050604051809103906000f080151561033d57600080fd5b9050919050565b80600060086101000a81548173ffffffffffffffffffffffffffffffffffffffff021916908373ffffffffffffffffffffffffffffffffffffffff16021790555050565b600060089054906101000a900473ffffffffffffffffffffffffffffffffffffffff1681565b604051610cc3806103bf83390190560060606040526000600160146101000a81548160ff021916908315150217905550341561002a57600080fd5b604051604080610cc383398101604052808051906020019091908051906020019091905050336000806101000a81548173ffffffffffffffffffffffffffffffffffffffff021916908373ffffffffffffffffffffffffffffffffffffffff160217905550816000806101000a81548173ffffffffffffffffffffffffffffffffffffffff021916908373ffffffffffffffffffffffffffffffffffffffff16021790555080600160006101000a81548173ffffffffffffffffffffffffffffffffffffffff021916908373ffffffffffffffffffffffffffffffffffffffff1602179055505050610ba2806101216000396000f300606060405260043610610057576000357c0100000000000000000000000000000000000000000000000000000000900463ffffffff1680638da5cb5b1461005c5780638e1a55fc146100b1578063f2fde38b14610106575b600080fd5b341561006757600080fd5b61006f61013f565b604051808273ffffffffffffffffffffffffffffffffffffffff1673ffffffffffffffffffffffffffffffffffffffff16815260200191505060405180910390f35b34156100bc57600080fd5b6100c4610164565b604051808273ffffffffffffffffffffffffffffffffffffffff1673ffffffffffffffffffffffffffffffffffffffff16815260200191505060405180910390f35b341561011157600080fd5b61013d600480803573ffffffffffffffffffffffffffffffffffffffff169060200190919050506102ce565b005b6000809054906101000a900473ffffffffffffffffffffffffffffffffffffffff1681565b60008060009054906101000a900473ffffffffffffffffffffffffffffffffffffffff1673ffffffffffffffffffffffffffffffffffffffff163373ffffffffffffffffffffffffffffffffffffffff161415156101c157600080fd5b60001515600160149054906101000a900460ff1615151415156101e357600080fd5b6000809054906101000a900473ffffffffffffffffffffffffffffffffffffffff16600160009054906101000a900473ffffffffffffffffffffffffffffffffffffffff16610230610423565b808373ffffffffffffffffffffffffffffffffffffffff1673ffffffffffffffffffffffffffffffffffffffff1681526020018273ffffffffffffffffffffffffffffffffffffffff1673ffffffffffffffffffffffffffffffffffffffff16815260200192505050604051809103906000f08015156102af57600080fd5b905060018060146101000a81548160ff02191690831515021790555090565b6000809054906101000a900473ffffffffffffffffffffffffffffffffffffffff1673ffffffffffffffffffffffffffffffffffffffff163373ffffffffffffffffffffffffffffffffffffffff1614151561032957600080fd5b600073ffffffffffffffffffffffffffffffffffffffff168173ffffffffffffffffffffffffffffffffffffffff161415151561036557600080fd5b8073ffffffffffffffffffffffffffffffffffffffff166000809054906101000a900473ffffffffffffffffffffffffffffffffffffffff1673ffffffffffffffffffffffffffffffffffffffff167f8be0079c531659141344cd1fd0a4f28419497f9722a3daafe3b4186f6b6457e060405160405180910390a3806000806101000a81548173ffffffffffffffffffffffffffffffffffffffff021916908373ffffffffffffffffffffffffffffffffffffffff16021790555050565b604051610743806104348339019056006060604052341561000f57600080fd5b604051604080610743833981016040528080519060200190919080519060200190919050508073ffffffffffffffffffffffffffffffffffffffff16630c05b3c56000604051602001526040518163ffffffff167c0100000000000000000000000000000000000000000000000000000000028152600401602060405180830381600087803b15156100a057600080fd5b6102c65a03f115156100b157600080fd5b505050604051805190506001806000806101000a81548167ffffffffffffffff021916908367ffffffffffffffff16021790555081600060086101000a81548173ffffffffffffffffffffffffffffffffffffffff021916908373ffffffffffffffffffffffffffffffffffffffff160217905550505081600160006101000a81548173ffffffffffffffffffffffffffffffffffffffff021916908373ffffffffffffffffffffffffffffffffffffffff16021790555050506105c98061017a6000396000f30060606040526004361061008e576000357c0100000000000000000000000000000000000000000000000000000000900463ffffffff1680630c05b3c5146100935780630d8e6e2c146100e857806346995b1b1461012557806354fd4d501461019e578063893d20e8146101db5780638da5cb5b14610230578063d979f5aa14610285578063e534155d146102be575b600080fd5b341561009e57600080fd5b6100a6610313565b604051808273ffffffffffffffffffffffffffffffffffffffff1673ffffffffffffffffffffffffffffffffffffffff16815260200191505060405180910390f35b34156100f357600080fd5b6100fb61033c565b604051808267ffffffffffffffff1667ffffffffffffffff16815260200191505060405180910390f35b341561013057600080fd5b61015c600480803573ffffffffffffffffffffffffffffffffffffffff16906020019091905050610359565b604051808273ffffffffffffffffffffffffffffffffffffffff1673ffffffffffffffffffffffffffffffffffffffff16815260200191505060405180910390f35b34156101a957600080fd5b6101b161036b565b604051808267ffffffffffffffff1667ffffffffffffffff16815260200191505060405180910390f35b34156101e657600080fd5b6101ee610384565b604051808273ffffffffffffffffffffffffffffffffffffffff1673ffffffffffffffffffffffffffffffffffffffff16815260200191505060405180910390f35b341561023b57600080fd5b6102436103ae565b604051808273ffffffffffffffffffffffffffffffffffffffff1673ffffffffffffffffffffffffffffffffffffffff16815260200191505060405180910390f35b341561029057600080fd5b6102bc600480803573ffffffffffffffffffffffffffffffffffffffff169060200190919050506103d4565b005b34156102c957600080fd5b6102d1610418565b604051808273ffffffffffffffffffffffffffffffffffffffff1673ffffffffffffffffffffffffffffffffffffffff16815260200191505060405180910390f35b60008060089054906101000a900473ffffffffffffffffffffffffffffffffffffffff16905090565b60008060009054906101000a900467ffffffffffffffff16905090565b60006103648261043e565b9050919050565b6000809054906101000a900467ffffffffffffffff1681565b6000600160009054906101000a900473ffffffffffffffffffffffffffffffffffffffff16905090565b600160009054906101000a900473ffffffffffffffffffffffffffffffffffffffff1681565b80600060086101000a81548173ffffffffffffffffffffffffffffffffffffffff021916908373ffffffffffffffffffffffffffffffffffffffff16021790555050565b600060089054906101000a900473ffffffffffffffffffffffffffffffffffffffff1681565b600080600061044b610313565b91508173ffffffffffffffffffffffffffffffffffffffff1663fcd3e5506000604051602001526040518163ffffffff167c0100000000000000000000000000000000000000000000000000000000028152600401602060405180830381600087803b15156104b957600080fd5b6102c65a03f115156104ca57600080fd5b5050506040518051905090508073ffffffffffffffffffffffffffffffffffffffff16636f57a559856000604051602001526040518263ffffffff167c0100000000000000000000000000000000000000000000000000000000028152600401808273ffffffffffffffffffffffffffffffffffffffff1673ffffffffffffffffffffffffffffffffffffffff168152602001915050602060405180830381600087803b151561057957600080fd5b6102c65a03f1151561058a57600080fd5b50505060405180519050925050509190505600a165627a7a7230582059f1745a9ad381eb6e31f0d1574853e1984b7aa261f526241acb03e1b9ec23780029a165627a7a72305820344074f3234b3b8b27ffad01687d77eae8e3986fd0d68b358e33c5abd652b9ea0029a165627a7a723058204becbe5a05221419224273e796e8f85fa6293b0c188f7a4713eb397557b1189e0029",
  "source": "pragma solidity ^0.4.18;\r\n\r\n\r\nimport \"../node_modules/zeppelin-solidity/contracts/ownership/Ownable.sol\";\r\n\r\ncontract iVersionable {\r\n\r\n    function iVersionable(   iBaseHolder _holder, uint64 _version\r\n    ) public {\r\n        version = _version;\r\n        holder = _holder;\r\n      }\r\n\r\n    uint64 public version;\r\n    iBaseHolder public holder;\r\n\r\n\r\n    function getVersion() public view returns (uint64 _version){\r\n        _version=version;\r\n    }\r\n    function setVersion(uint64 _version) internal {\r\n        version=_version;\r\n    }\r\n    function setHolder(iBaseHolder bh) public{\r\n        holder = bh;\r\n    }\r\n\r\n    function getHolder() public view returns (iBaseHolder bh){\r\n        bh=holder;\r\n    }\r\n\r\n}\r\n\r\n\r\ncontract iBaseHolder{\r\n    function iBaseHolder()public {\r\n        newestVersion=0;\r\n    }\r\n\r\n    mapping (uint64 => address) iCreators;\r\n    mapping (uint64 => mapping (address => address)) allDocuments;\r\n\r\n    uint64 private newestVersion;\r\n    function updateCreator(address anotherCreator) public {\r\n        iCreator crt = iCreator(anotherCreator);\r\n        uint64 _creatorVersion=crt.getVersion();\r\n        require(_creatorVersion>newestVersion/*,'iCreator is too old, try newer one'*/);\r\n        crt.setHolder(this);\r\n        iCreators[_creatorVersion]=crt;\r\n        newestVersion=_creatorVersion;\r\n\r\n    }\r\n\r\n    function getCreator(uint64 version) public view  returns (iCreator _creator){\r\n        require(version<=newestVersion/*,'no creator for that version, it\\'s unimplemented yet'*/);\r\n        _creator =iCreator( iCreators[version]);\r\n    }\r\n\r\n    function getLatestCreator() public view returns (iCreator _creator){\r\n        _creator =getCreator(newestVersion);\r\n    }\r\n\r\n    function registerDocument(address _owner, iDocument document) public {\r\n\r\n        uint64 _documentVersion=document.getVersion();\r\n        require (_documentVersion<=newestVersion/*,'document source unspecified!'*/);\r\n\r\n        mapping (address => address) docsForVersion = allDocuments[_documentVersion];\r\n        address docExists = docsForVersion[_owner];\r\n        require(docExists==0/*,'document already created!'*/);\r\n        docsForVersion[_owner]=document;\r\n\r\n    }\r\n\r\n}\r\n\r\ncontract Storage is Ownable{\r\n  function Storage() public Ownable(){\r\n      owner=msg.sender;\r\n  }\r\n  mapping (uint256 => iBaseHolder) holdersByType;\r\n\r\n  function getLatestCreator(string contractType) external view returns (iCreator _creator){\r\n     return holdersByType[ uint256(keccak256(contractType))].getLatestCreator();\r\n  }\r\n  function addHolder(string contractType,iBaseHolder holder) public {\r\n     holdersByType[uint256(keccak256(contractType))]=holder;\r\n  }\r\n}\r\n\r\n// builder for contract.\r\ncontract iDocumentBuilder is Ownable {\r\n  iCreator creator;\r\n  bool isCreated = false;\r\n  function iDocumentBuilder  (address _curator, iCreator _creator)public{\r\n    owner = _curator;\r\n    creator= _creator;\r\n  }\r\n\r\n  modifier whileNotCreated(){\r\n    require(isCreated == false);\r\n       _;\r\n  }\r\n\r\n  modifier setCreatedOnSuccess(){\r\n       _;\r\n       isCreated=true;\r\n  }\r\n\r\n  function build() public onlyOwner whileNotCreated setCreatedOnSuccess returns (iDocument doc) {\r\n    return new iDocument(owner, creator);\r\n  }\r\n\r\n\r\n\r\n}\r\n// this class should be only one for contract version\r\ncontract iCreator is iVersionable{\r\n\r\n    function iCreator(iBaseHolder _holder,uint64 version)public iVersionable(_holder,version){\r\n\r\n    }\r\n\r\n    function createDocumentBuilder(address _curator ) public returns (iDocumentBuilder _newDocumentBuilder) {\r\n        _newDocumentBuilder = new iDocumentBuilder(_curator,this);\r\n\r\n    }\r\n}\r\n\r\ncontract iDocument is iVersionable {\r\n    address public  owner;\r\n\r\n    function iDocument(address _owner, iCreator _creator) public iVersionable(_creator.getHolder(),1) {\r\n      //  iCreator crt1232 = iCreator(_creator);\r\n        owner=_owner;\r\n    }\r\n\r\n    function wantSameContract(  address _newOwner) public returns (iDocumentBuilder _newDoc) {\r\n\r\n            _newDoc = createNewDoc(_newOwner);\r\n\r\n    }\r\n\r\n    function getOwner() public view returns  (address _owner){\r\n        _owner=owner;\r\n    }\r\n\r\n    function createNewDoc(address _newOwner) internal returns (iDocumentBuilder _newDoc) {\r\n       iBaseHolder holder = getHolder();\r\n\r\n       iCreator creator = holder.getLatestCreator();\r\n\r\n        _newDoc =creator.createDocumentBuilder(_newOwner);\r\n      //     holder.registerDocument(_newOwner, _newDoc);\r\n    }\r\n\r\n}\r\n",
  "sourcePath": "D:\\blockchainDiploma\\truffletest\\contracts\\Astral.sol",
  "compiler": {
    "name": "solc",
    "version": "0.4.19+commit.c4cbbb05.Emscripten.clang"
  },
  "schemaVersion": "2.0.0",
  "updatedAt": "2018-04-16T19:12:06.928Z"
}