{
  "contractName": "iDocument",
  "abi": [
    {
      "constant": true,
      "inputs": [],
      "name": "getHolder",
      "outputs": [
        {
          "name": "bh",
          "type": "address"
        }
      ],
      "payable": false,
      "stateMutability": "view",
      "type": "function"
    },
    {
      "constant": true,
      "inputs": [],
      "name": "getVersion",
      "outputs": [
        {
          "name": "_version",
          "type": "uint64"
        }
      ],
      "payable": false,
      "stateMutability": "view",
      "type": "function"
    },
    {
      "constant": true,
      "inputs": [],
      "name": "version",
      "outputs": [
        {
          "name": "",
          "type": "uint64"
        }
      ],
      "payable": false,
      "stateMutability": "view",
      "type": "function"
    },
    {
      "constant": true,
      "inputs": [],
      "name": "successor",
      "outputs": [
        {
          "name": "",
          "type": "address"
        }
      ],
      "payable": false,
      "stateMutability": "view",
      "type": "function"
    },
    {
      "constant": true,
      "inputs": [],
      "name": "owner",
      "outputs": [
        {
          "name": "",
          "type": "address"
        }
      ],
      "payable": false,
      "stateMutability": "view",
      "type": "function"
    },
    {
      "constant": false,
      "inputs": [
        {
          "name": "bh",
          "type": "address"
        }
      ],
      "name": "setHolder",
      "outputs": [],
      "payable": false,
      "stateMutability": "nonpayable",
      "type": "function"
    },
    {
      "constant": true,
      "inputs": [],
      "name": "holder",
      "outputs": [
        {
          "name": "",
          "type": "address"
        }
      ],
      "payable": false,
      "stateMutability": "view",
      "type": "function"
    },
    {
      "inputs": [
        {
          "name": "_owner",
          "type": "address"
        },
        {
          "name": "_creator",
          "type": "address"
        }
      ],
      "payable": false,
      "stateMutability": "nonpayable",
      "type": "constructor"
    },
    {
      "constant": false,
      "inputs": [
        {
          "name": "_newOwner",
          "type": "address"
        }
      ],
      "name": "wantSameContract",
      "outputs": [
        {
          "name": "_successor",
          "type": "address"
        }
      ],
      "payable": false,
      "stateMutability": "nonpayable",
      "type": "function"
    },
    {
      "constant": true,
      "inputs": [],
      "name": "getOwner",
      "outputs": [
        {
          "name": "_owner",
          "type": "address"
        }
      ],
      "payable": false,
      "stateMutability": "view",
      "type": "function"
    }
  ],
  "bytecode": "0x6060604052341561000f57600080fd5b60405160408061092d833981016040528080519060200190919080519060200190919050506000600182816000806101000a81548167ffffffffffffffff021916908367ffffffffffffffff16021790555080600060086101000a81548173ffffffffffffffffffffffffffffffffffffffff021916908373ffffffffffffffffffffffffffffffffffffffff160217905550505081905082600260006101000a81548173ffffffffffffffffffffffffffffffffffffffff021916908373ffffffffffffffffffffffffffffffffffffffff160217905550505050610833806100fa6000396000f300606060405260043610610099576000357c0100000000000000000000000000000000000000000000000000000000900463ffffffff1680630c05b3c51461009e5780630d8e6e2c146100f357806346995b1b1461013057806354fd4d50146101a95780636ff968c3146101e6578063893d20e81461023b5780638da5cb5b14610290578063d979f5aa146102e5578063e534155d1461031e575b600080fd5b34156100a957600080fd5b6100b1610373565b604051808273ffffffffffffffffffffffffffffffffffffffff1673ffffffffffffffffffffffffffffffffffffffff16815260200191505060405180910390f35b34156100fe57600080fd5b61010661039c565b604051808267ffffffffffffffff1667ffffffffffffffff16815260200191505060405180910390f35b341561013b57600080fd5b610167600480803573ffffffffffffffffffffffffffffffffffffffff169060200190919050506103b9565b604051808273ffffffffffffffffffffffffffffffffffffffff1673ffffffffffffffffffffffffffffffffffffffff16815260200191505060405180910390f35b34156101b457600080fd5b6101bc6104cd565b604051808267ffffffffffffffff1667ffffffffffffffff16815260200191505060405180910390f35b34156101f157600080fd5b6101f96104e6565b604051808273ffffffffffffffffffffffffffffffffffffffff1673ffffffffffffffffffffffffffffffffffffffff16815260200191505060405180910390f35b341561024657600080fd5b61024e61050c565b604051808273ffffffffffffffffffffffffffffffffffffffff1673ffffffffffffffffffffffffffffffffffffffff16815260200191505060405180910390f35b341561029b57600080fd5b6102a3610536565b604051808273ffffffffffffffffffffffffffffffffffffffff1673ffffffffffffffffffffffffffffffffffffffff16815260200191505060405180910390f35b34156102f057600080fd5b61031c600480803573ffffffffffffffffffffffffffffffffffffffff1690602001909190505061055c565b005b341561032957600080fd5b6103316105a0565b604051808273ffffffffffffffffffffffffffffffffffffffff1673ffffffffffffffffffffffffffffffffffffffff16815260200191505060405180910390f35b60008060089054906101000a900473ffffffffffffffffffffffffffffffffffffffff16905090565b60008060009054906101000a900467ffffffffffffffff16905090565b6000806000600160009054906101000a900473ffffffffffffffffffffffffffffffffffffffff1673ffffffffffffffffffffffffffffffffffffffff16630d8e6e2c6000604051602001526040518163ffffffff167c0100000000000000000000000000000000000000000000000000000000028152600401602060405180830381600087803b151561044c57600080fd5b6102c65a03f1151561045d57600080fd5b5050506040518051905067ffffffffffffffff1614156104c757610480836105c6565b905080600160006101000a81548173ffffffffffffffffffffffffffffffffffffffff021916908373ffffffffffffffffffffffffffffffffffffffff1602179055508091505b50919050565b6000809054906101000a900467ffffffffffffffff1681565b600160009054906101000a900473ffffffffffffffffffffffffffffffffffffffff1681565b6000600260009054906101000a900473ffffffffffffffffffffffffffffffffffffffff16905090565b600260009054906101000a900473ffffffffffffffffffffffffffffffffffffffff1681565b80600060086101000a81548173ffffffffffffffffffffffffffffffffffffffff021916908373ffffffffffffffffffffffffffffffffffffffff16021790555050565b600060089054906101000a900473ffffffffffffffffffffffffffffffffffffffff1681565b60008060006105d3610373565b91508173ffffffffffffffffffffffffffffffffffffffff1663fcd3e5506000604051602001526040518163ffffffff167c0100000000000000000000000000000000000000000000000000000000028152600401602060405180830381600087803b151561064157600080fd5b6102c65a03f1151561065257600080fd5b5050506040518051905090508073ffffffffffffffffffffffffffffffffffffffff16639d310162856000604051602001526040518263ffffffff167c0100000000000000000000000000000000000000000000000000000000028152600401808273ffffffffffffffffffffffffffffffffffffffff1673ffffffffffffffffffffffffffffffffffffffff168152602001915050602060405180830381600087803b151561070157600080fd5b6102c65a03f1151561071257600080fd5b5050506040518051905092508173ffffffffffffffffffffffffffffffffffffffff1663b4db0ef385856040518363ffffffff167c0100000000000000000000000000000000000000000000000000000000028152600401808373ffffffffffffffffffffffffffffffffffffffff1673ffffffffffffffffffffffffffffffffffffffff1681526020018273ffffffffffffffffffffffffffffffffffffffff1673ffffffffffffffffffffffffffffffffffffffff16815260200192505050600060405180830381600087803b15156107ec57600080fd5b6102c65a03f115156107fd57600080fd5b50505050509190505600a165627a7a723058206d1d5c1431bd711a036a3d516b47f80821de1b4d28c695d9c8f0a5ce1f80008b0029",
  "source": "pragma solidity ^0.4.17;\r\n\r\n\r\nimport \"../node_modules/zeppelin-solidity/contracts/ownership/Ownable.sol\";\r\nimport \"../node_modules/zeppelin-solidity/contracts/token/ERC20/MintableToken.sol\";\r\n\r\ncontract iVersionable {\r\n\r\n    function iVersionable(  uint64 _version,\r\n      address _holder) public {\r\n        version = _version;\r\n        holder =iBaseHolder( _holder);\r\n      //  successor.setVersion(0);\r\n      }\r\n\r\n    uint64 public version;\r\n    iBaseHolder public holder;\r\n    iVersionable public successor;\r\n\r\n    function getVersion() public view returns (uint64 _version){\r\n        _version=version;\r\n    }\r\n    function setVersion(uint64 _version) internal {\r\n        version=_version;\r\n    }\r\n    function setHolder(iBaseHolder bh) public{\r\n        holder = bh;\r\n    }\r\n\r\n    function getHolder() public view returns (iBaseHolder bh){\r\n        bh=holder;\r\n    }\r\n\r\n}\r\n\r\n\r\ncontract iBaseHolder{\r\n    function iBaseHolder()public {\r\n        newestVersion=0;\r\n    }\r\n\r\n    mapping (uint64 => address) iCreators;\r\n    mapping (uint64 => mapping (address => address)) allDocuments;\r\n\r\n    uint64 private newestVersion;\r\n    function updateCreator(address anotherCreator) public {\r\n        iCreator crt = iCreator(anotherCreator);\r\n        uint64 _creatorVersion=crt.getVersion();\r\n        require(_creatorVersion>newestVersion/*,'iCreator is too old, try newer one'*/);\r\n        crt.setHolder(this);\r\n        iCreators[_creatorVersion]=crt;\r\n        newestVersion=_creatorVersion;\r\n\r\n    }\r\n\r\n    function getCreator(uint64 version) public view  returns (iCreator _creator){\r\n        require(version<=newestVersion/*,'no creator for that version, it\\'s unimplemented yet'*/);\r\n        _creator =iCreator( iCreators[version]);\r\n    }\r\n\r\n    function getLatestCreator() public view returns (iCreator _creator){\r\n        _creator =getCreator(newestVersion);\r\n    }\r\n\r\n    function registerDocument(address _owner, iDocument document) public {\r\n\r\n        uint64 _documentVersion=document.getVersion();\r\n        require (_documentVersion<=newestVersion/*,'document source unspecified!'*/);\r\n\r\n        mapping (address => address) docsForVersion = allDocuments[_documentVersion];\r\n        address docExists = docsForVersion[_owner];\r\n        require(docExists==0/*,'document already created!'*/);\r\n        docsForVersion[_owner]=document;\r\n\r\n    }\r\n\r\n}\r\n\r\ncontract Storage is Ownable{\r\n  function Storage() public Ownable(){\r\n      owner=msg.sender;\r\n  }\r\n  mapping (uint256 => iBaseHolder) holdersByType;\r\n\r\n  function getLatestCreator(string contractType) external view returns (iCreator _creator){\r\n     return holdersByType[ uint256(keccak256(contractType))].getLatestCreator();\r\n  }\r\n  function addHolder(string contractType,address holder) public {\r\n     iBaseHolder realHolder = iBaseHolder(holder);\r\n     holdersByType[uint256(keccak256(contractType))]=realHolder;\r\n  }\r\n}\r\n\r\ncontract iCreator is iVersionable{\r\n\r\n    function iCreator(address _holder,uint64 version)public iVersionable(version,_holder){\r\n\r\n    }\r\n\r\n    function createDocument(address _curator ) public returns (iDocument _newDocument) {\r\n        _newDocument = new iDocument(_curator,getHolder());\r\n\r\n    }\r\n}\r\n\r\ncontract iDocument is iVersionable {\r\n    address public  owner;\r\n\r\n    function iDocument(address _owner, address _creator) public iVersionable(1,_creator) {\r\n        iCreator crt1232 = iCreator(_creator);\r\n        owner=_owner;\r\n    }\r\n\r\n    function wantSameContract(  address _newOwner) public returns (iDocument _successor) {\r\n        if(successor.getVersion()==0){\r\n            iDocument newDoc = createNewDoc(_newOwner);\r\n            successor=newDoc;\r\n            _successor=newDoc;\r\n        }\r\n    }\r\n\r\n    function getOwner() public view returns  (address _owner){\r\n        _owner=owner;\r\n    }\r\n\r\n    function createNewDoc(address _newOwner) internal returns (iDocument _newDoc) {\r\n       iBaseHolder holder = getHolder();\r\n\r\n       iCreator creator = holder.getLatestCreator();\r\n\r\n        _newDoc =creator.createDocument(_newOwner);\r\n           holder.registerDocument(_newOwner, _newDoc);\r\n    }\r\n\r\n}\r\n\r\ncontract SampleToken is iDocument {\r\n\r\nfunction SampleToken(address _owner,address _daoCreator ) public iDocument(_owner,_daoCreator){\r\n      setVersion(2);\r\n}\r\n\r\n  string public name = \"SampleToken\";\r\n  string public symbol = \"SMT\";\r\n  uint256 public decimals = 18;\r\n\r\n}\r\n\r\n\r\n\r\ncontract SampleTokenCreator is iCreator{\r\n\r\n    function SampleTokenCreator(address _holder,uint64 _version) public iCreator(_holder,_version){\r\n    }\r\n\r\n    function createDocument(\r\n        address _curator\r\n    ) returns (iDocument _newDocument) {\r\n      //  _newDocument = new SampleToken(_curator,getHolder());\r\n    }\r\n}\r\n",
  "sourcePath": "D:\\blockchainDiploma\\truffletest\\contracts\\Astral.sol",
  "compiler": {
    "name": "solc",
    "version": "0.4.19+commit.c4cbbb05.Emscripten.clang"
  },
  "schemaVersion": "2.0.0",
  "updatedAt": "2018-04-15T08:36:13.202Z"
}