{
  "contractName": "iVersionable",
  "abi": [
    {
      "constant": true,
      "inputs": [],
      "name": "version",
      "outputs": [
        {
          "name": "",
          "type": "uint64"
        }
      ],
      "payable": false,
      "stateMutability": "view",
      "type": "function"
    },
    {
      "constant": true,
      "inputs": [],
      "name": "successor",
      "outputs": [
        {
          "name": "",
          "type": "address"
        }
      ],
      "payable": false,
      "stateMutability": "view",
      "type": "function"
    },
    {
      "constant": true,
      "inputs": [],
      "name": "holder",
      "outputs": [
        {
          "name": "",
          "type": "address"
        }
      ],
      "payable": false,
      "stateMutability": "view",
      "type": "function"
    },
    {
      "inputs": [
        {
          "name": "_version",
          "type": "uint64"
        },
        {
          "name": "_holder",
          "type": "address"
        }
      ],
      "payable": false,
      "stateMutability": "nonpayable",
      "type": "constructor"
    },
    {
      "constant": true,
      "inputs": [],
      "name": "getVersion",
      "outputs": [
        {
          "name": "_version",
          "type": "uint64"
        }
      ],
      "payable": false,
      "stateMutability": "view",
      "type": "function"
    },
    {
      "constant": false,
      "inputs": [
        {
          "name": "bh",
          "type": "address"
        }
      ],
      "name": "setHolder",
      "outputs": [],
      "payable": false,
      "stateMutability": "nonpayable",
      "type": "function"
    },
    {
      "constant": true,
      "inputs": [],
      "name": "getHolder",
      "outputs": [
        {
          "name": "bh",
          "type": "address"
        }
      ],
      "payable": false,
      "stateMutability": "view",
      "type": "function"
    }
  ],
  "bytecode": "0x6060604052341561000f57600080fd5b6040516040806103f883398101604052808051906020019091908051906020019091905050816000806101000a81548167ffffffffffffffff021916908367ffffffffffffffff16021790555080600060086101000a81548173ffffffffffffffffffffffffffffffffffffffff021916908373ffffffffffffffffffffffffffffffffffffffff160217905550505061034a806100ae6000396000f300606060405260043610610078576000357c0100000000000000000000000000000000000000000000000000000000900463ffffffff1680630c05b3c51461007d5780630d8e6e2c146100d257806354fd4d501461010f5780636ff968c31461014c578063d979f5aa146101a1578063e534155d146101da575b600080fd5b341561008857600080fd5b61009061022f565b604051808273ffffffffffffffffffffffffffffffffffffffff1673ffffffffffffffffffffffffffffffffffffffff16815260200191505060405180910390f35b34156100dd57600080fd5b6100e5610258565b604051808267ffffffffffffffff1667ffffffffffffffff16815260200191505060405180910390f35b341561011a57600080fd5b610122610275565b604051808267ffffffffffffffff1667ffffffffffffffff16815260200191505060405180910390f35b341561015757600080fd5b61015f61028e565b604051808273ffffffffffffffffffffffffffffffffffffffff1673ffffffffffffffffffffffffffffffffffffffff16815260200191505060405180910390f35b34156101ac57600080fd5b6101d8600480803573ffffffffffffffffffffffffffffffffffffffff169060200190919050506102b4565b005b34156101e557600080fd5b6101ed6102f8565b604051808273ffffffffffffffffffffffffffffffffffffffff1673ffffffffffffffffffffffffffffffffffffffff16815260200191505060405180910390f35b60008060089054906101000a900473ffffffffffffffffffffffffffffffffffffffff16905090565b60008060009054906101000a900467ffffffffffffffff16905090565b6000809054906101000a900467ffffffffffffffff1681565b600160009054906101000a900473ffffffffffffffffffffffffffffffffffffffff1681565b80600060086101000a81548173ffffffffffffffffffffffffffffffffffffffff021916908373ffffffffffffffffffffffffffffffffffffffff16021790555050565b600060089054906101000a900473ffffffffffffffffffffffffffffffffffffffff16815600a165627a7a72305820f470592ce44e027c2d16f0def0f165bf4c87b8529d439daa93757b00915256b30029",
  "source": "pragma solidity ^0.4.17;\r\n\r\ncontract iVersionable {\r\n\r\n    function iVersionable(  uint64 _version,\r\n      iBaseHolder _holder) public {\r\n        version = _version;\r\n        holder = _holder;\r\n      //  successor.setVersion(0);\r\n      }\r\n\r\n    uint64 public version;\r\n    iBaseHolder public holder;\r\n    iVersionable public successor;\r\n\r\n    function getVersion() public view returns (uint64 _version){\r\n        _version=version;\r\n    }\r\n    function setVersion(uint64 _version) internal {\r\n        version=_version;\r\n    }\r\n    function setHolder(iBaseHolder bh) public{\r\n        holder = bh;\r\n    }\r\n\r\n    function getHolder() public view returns (iBaseHolder bh){\r\n        bh=holder;\r\n    }\r\n\r\n}\r\n\r\n\r\ncontract iBaseHolder{\r\n    function iBaseHolder()public {\r\n        newestVersion=0;\r\n    }\r\n\r\n    mapping (uint64 => address) iCreators;\r\n    mapping (uint64 => mapping (address => address)) allDocuments;\r\n\r\n    uint64 private newestVersion;\r\n    function updateCreator(iCreator anotherCreator) public {\r\n        uint64 _creatorVersion=anotherCreator.getVersion();\r\n        require(_creatorVersion>newestVersion/*,'iCreator is too old, try newer one'*/);\r\n        anotherCreator.setHolder(this);\r\n        iCreators[_creatorVersion]=anotherCreator;\r\n        newestVersion=_creatorVersion;\r\n\r\n    }\r\n\r\n    function getCreator(uint64 version) public view  returns (iCreator _creator){\r\n        require(version<=newestVersion/*,'no creator for that version, it\\'s unimplemented yet'*/);\r\n        _creator =iCreator( iCreators[version]);\r\n    }\r\n\r\n    function getLatestCreator() public view returns (iCreator _creator){\r\n        _creator =getCreator(newestVersion);\r\n    }\r\n\r\n    function registerDocument(address _owner, iDocument document) public {\r\n\r\n        uint64 _documentVersion=document.getVersion();\r\n        require (_documentVersion<=newestVersion/*,'document source unspecified!'*/);\r\n\r\n        mapping (address => address) docsForVersion = allDocuments[_documentVersion];\r\n        address docExists = docsForVersion[_owner];\r\n        require(docExists==0/*,'document already created!'*/);\r\n        docsForVersion[_owner]=document;\r\n\r\n    }\r\n\r\n}\r\n\r\ncontract Storage{\r\n  mapping (uint256 => iBaseHolder) holdersByType;\r\n\r\n}\r\n\r\ncontract iCreator is iVersionable{\r\n\r\n    function iCreator(iBaseHolder _holder)public iVersionable(1,_holder){\r\n\r\n    }\r\n\r\n    function createDocument(address _curator ) public returns (iDocument _newDocument) {\r\n        _newDocument = new iDocument(_curator,getHolder());\r\n\r\n    }\r\n}\r\n\r\ncontract iDocument is iVersionable {\r\n    address public  owner;\r\n\r\n    function iDocument(address _owner, iBaseHolder _daoCreator) public iVersionable(1,_daoCreator) {\r\n        owner=_owner;\r\n    }\r\n\r\n    function wantSameContract(  address _newOwner) public returns (iDocument _successor) {\r\n        if(successor.getVersion()==0){\r\n            iDocument newDoc = createNewDoc(_newOwner);\r\n            successor=newDoc;\r\n            _successor=newDoc;\r\n        }\r\n    }\r\n\r\n    function getOwner() public view returns  (address _owner){\r\n        _owner=owner;\r\n    }\r\n\r\n    function createNewDoc(address _newOwner) internal returns (iDocument _newDoc) {\r\n       iBaseHolder holder = getHolder();\r\n\r\n       iCreator creator = holder.getLatestCreator();\r\n\r\n        _newDoc =creator.createDocument(_newOwner);\r\n           holder.registerDocument(_newOwner, _newDoc);\r\n    }\r\n\r\n}\r\n",
  "sourcePath": "D:\\blockchainDiploma\\truffletest\\contracts\\Astral.sol",
  "compiler": {
    "name": "solc",
    "version": "0.4.19+commit.c4cbbb05.Emscripten.clang"
  },
  "schemaVersion": "2.0.0",
  "updatedAt": "2018-04-08T07:21:34.506Z"
}