{
  "contractName": "SampleTokenCreator",
  "abi": [
    {
      "constant": false,
      "inputs": [],
      "name": "getHolder",
      "outputs": [
        {
          "name": "bh",
          "type": "address"
        }
      ],
      "payable": false,
      "stateMutability": "nonpayable",
      "type": "function"
    },
    {
      "constant": false,
      "inputs": [],
      "name": "getVersion",
      "outputs": [
        {
          "name": "_version",
          "type": "uint64"
        }
      ],
      "payable": false,
      "stateMutability": "nonpayable",
      "type": "function"
    },
    {
      "constant": true,
      "inputs": [],
      "name": "version",
      "outputs": [
        {
          "name": "",
          "type": "uint64"
        }
      ],
      "payable": false,
      "stateMutability": "view",
      "type": "function"
    },
    {
      "constant": true,
      "inputs": [],
      "name": "successor",
      "outputs": [
        {
          "name": "",
          "type": "address"
        }
      ],
      "payable": false,
      "stateMutability": "view",
      "type": "function"
    },
    {
      "constant": false,
      "inputs": [
        {
          "name": "_version",
          "type": "uint64"
        }
      ],
      "name": "setVersion",
      "outputs": [],
      "payable": false,
      "stateMutability": "nonpayable",
      "type": "function"
    },
    {
      "constant": false,
      "inputs": [
        {
          "name": "bh",
          "type": "address"
        }
      ],
      "name": "setHolder",
      "outputs": [],
      "payable": false,
      "stateMutability": "nonpayable",
      "type": "function"
    },
    {
      "constant": true,
      "inputs": [],
      "name": "holder",
      "outputs": [
        {
          "name": "",
          "type": "address"
        }
      ],
      "payable": false,
      "stateMutability": "view",
      "type": "function"
    },
    {
      "inputs": [
        {
          "name": "_holder",
          "type": "address"
        }
      ],
      "payable": false,
      "stateMutability": "nonpayable",
      "type": "constructor"
    },
    {
      "constant": false,
      "inputs": [
        {
          "name": "_curator",
          "type": "address"
        }
      ],
      "name": "createDocument",
      "outputs": [
        {
          "name": "_newDocument",
          "type": "address"
        }
      ],
      "payable": false,
      "stateMutability": "nonpayable",
      "type": "function"
    }
  ],
  "bytecode": "0x6060604052341561000f57600080fd5b6040516020806129dd8339810160405280805190602001909190505080600181816000806101000a81548167ffffffffffffffff021916908367ffffffffffffffff16021790555080600060086101000a81548173ffffffffffffffffffffffffffffffffffffffff021916908373ffffffffffffffffffffffffffffffffffffffff160217905550600160009054906101000a900473ffffffffffffffffffffffffffffffffffffffff1673ffffffffffffffffffffffffffffffffffffffff1663cf864d1560006040518263ffffffff167c0100000000000000000000000000000000000000000000000000000000028152600401808267ffffffffffffffff168152602001915050600060405180830381600087803b151561013357600080fd5b6102c65a03f1151561014457600080fd5b50505050505060026000806101000a81548167ffffffffffffffff021916908367ffffffffffffffff1602179055505061285a806101836000396000f30060606040526004361061008e576000357c0100000000000000000000000000000000000000000000000000000000900463ffffffff1680630c05b3c5146100935780630d8e6e2c146100e857806354fd4d50146101255780636ff968c3146101625780639d310162146101b7578063cf864d1514610230578063d979f5aa1461025d578063e534155d14610296575b600080fd5b341561009e57600080fd5b6100a66102eb565b604051808273ffffffffffffffffffffffffffffffffffffffff1673ffffffffffffffffffffffffffffffffffffffff16815260200191505060405180910390f35b34156100f357600080fd5b6100fb610314565b604051808267ffffffffffffffff1667ffffffffffffffff16815260200191505060405180910390f35b341561013057600080fd5b610138610331565b604051808267ffffffffffffffff1667ffffffffffffffff16815260200191505060405180910390f35b341561016d57600080fd5b61017561034a565b604051808273ffffffffffffffffffffffffffffffffffffffff1673ffffffffffffffffffffffffffffffffffffffff16815260200191505060405180910390f35b34156101c257600080fd5b6101ee600480803573ffffffffffffffffffffffffffffffffffffffff16906020019091905050610370565b604051808273ffffffffffffffffffffffffffffffffffffffff1673ffffffffffffffffffffffffffffffffffffffff16815260200191505060405180910390f35b341561023b57600080fd5b61025b600480803567ffffffffffffffff16906020019091905050610409565b005b341561026857600080fd5b610294600480803573ffffffffffffffffffffffffffffffffffffffff16906020019091905050610434565b005b34156102a157600080fd5b6102a9610478565b604051808273ffffffffffffffffffffffffffffffffffffffff1673ffffffffffffffffffffffffffffffffffffffff16815260200191505060405180910390f35b60008060089054906101000a900473ffffffffffffffffffffffffffffffffffffffff16905090565b60008060009054906101000a900467ffffffffffffffff16905090565b6000809054906101000a900467ffffffffffffffff1681565b600160009054906101000a900473ffffffffffffffffffffffffffffffffffffffff1681565b60008161037b6102eb565b61038361049e565b808373ffffffffffffffffffffffffffffffffffffffff1673ffffffffffffffffffffffffffffffffffffffff1681526020018273ffffffffffffffffffffffffffffffffffffffff1673ffffffffffffffffffffffffffffffffffffffff16815260200192505050604051809103906000f080151561040257600080fd5b9050919050565b806000806101000a81548167ffffffffffffffff021916908367ffffffffffffffff16021790555050565b80600060086101000a81548173ffffffffffffffffffffffffffffffffffffffff021916908373ffffffffffffffffffffffffffffffffffffffff16021790555050565b600060089054906101000a900473ffffffffffffffffffffffffffffffffffffffff1681565b604051612380806104af83390190560060606040526000600360146101000a81548160ff0219169083151502179055506040805190810160405280600b81526020017f53616d706c65546f6b656e000000000000000000000000000000000000000000815250600790805190602001906200006c929190620002ca565b506040805190810160405280600381526020017f534d54000000000000000000000000000000000000000000000000000000000081525060089080519060200190620000ba929190620002ca565b5060126009553415620000cc57600080fd5b6040516040806200238083398101604052808051906020019091908051906020019091905050818160018133600360006101000a81548173ffffffffffffffffffffffffffffffffffffffff021916908373ffffffffffffffffffffffffffffffffffffffff16021790555081600360156101000a81548167ffffffffffffffff021916908367ffffffffffffffff16021790555080600460006101000a81548173ffffffffffffffffffffffffffffffffffffffff021916908373ffffffffffffffffffffffffffffffffffffffff160217905550600560009054906101000a900473ffffffffffffffffffffffffffffffffffffffff1673ffffffffffffffffffffffffffffffffffffffff1663cf864d1560006040518263ffffffff167c0100000000000000000000000000000000000000000000000000000000028152600401808267ffffffffffffffff168152602001915050600060405180830381600087803b15156200023e57600080fd5b6102c65a03f115156200025057600080fd5b505050505081600660006101000a81548173ffffffffffffffffffffffffffffffffffffffff021916908373ffffffffffffffffffffffffffffffffffffffff16021790555050506002600360156101000a81548167ffffffffffffffff021916908367ffffffffffffffff160217905550505062000379565b828054600181600116156101000203166002900490600052602060002090601f016020900481019282601f106200030d57805160ff19168380011785556200033e565b828001600101855582156200033e579182015b828111156200033d57825182559160200191906001019062000320565b5b5090506200034d919062000351565b5090565b6200037691905b808211156200037257600081600090555060010162000358565b5090565b90565b611ff780620003896000396000f300606060405260043610610149576000357c0100000000000000000000000000000000000000000000000000000000900463ffffffff16806305d2035b1461014e57806306fdde031461017b578063095ea7b3146102095780630c05b3c5146102635780630d8e6e2c146102b857806318160ddd146102f557806323b872dd1461031e578063313ce5671461039757806340c10f19146103c057806346995b1b1461041a57806354fd4d501461049357806366188463146104d05780636ff968c31461052a57806370a082311461057f5780637d64bcb4146105cc578063893d20e8146105f95780638da5cb5b1461064e57806395d89b41146106a3578063a9059cbb14610731578063cf864d151461078b578063d73dd623146107b8578063d979f5aa14610812578063dd62ed3e1461084b578063e534155d146108b7578063f2fde38b1461090c575b600080fd5b341561015957600080fd5b610161610945565b604051808215151515815260200191505060405180910390f35b341561018657600080fd5b61018e610958565b6040518080602001828103825283818151815260200191508051906020019080838360005b838110156101ce5780820151818401526020810190506101b3565b50505050905090810190601f1680156101fb5780820380516001836020036101000a031916815260200191505b509250505060405180910390f35b341561021457600080fd5b610249600480803573ffffffffffffffffffffffffffffffffffffffff169060200190919080359060200190919050506109f6565b604051808215151515815260200191505060405180910390f35b341561026e57600080fd5b610276610ae8565b604051808273ffffffffffffffffffffffffffffffffffffffff1673ffffffffffffffffffffffffffffffffffffffff16815260200191505060405180910390f35b34156102c357600080fd5b6102cb610b12565b604051808267ffffffffffffffff1667ffffffffffffffff16815260200191505060405180910390f35b341561030057600080fd5b610308610b30565b6040518082815260200191505060405180910390f35b341561032957600080fd5b61037d600480803573ffffffffffffffffffffffffffffffffffffffff1690602001909190803573ffffffffffffffffffffffffffffffffffffffff16906020019091908035906020019091905050610b3a565b604051808215151515815260200191505060405180910390f35b34156103a257600080fd5b6103aa610ef4565b6040518082815260200191505060405180910390f35b34156103cb57600080fd5b610400600480803573ffffffffffffffffffffffffffffffffffffffff16906020019091908035906020019091905050610efa565b604051808215151515815260200191505060405180910390f35b341561042557600080fd5b610451600480803573ffffffffffffffffffffffffffffffffffffffff169060200190919050506110e0565b604051808273ffffffffffffffffffffffffffffffffffffffff1673ffffffffffffffffffffffffffffffffffffffff16815260200191505060405180910390f35b341561049e57600080fd5b6104a66111f4565b604051808267ffffffffffffffff1667ffffffffffffffff16815260200191505060405180910390f35b34156104db57600080fd5b610510600480803573ffffffffffffffffffffffffffffffffffffffff1690602001909190803590602001909190505061120e565b604051808215151515815260200191505060405180910390f35b341561053557600080fd5b61053d61149f565b604051808273ffffffffffffffffffffffffffffffffffffffff1673ffffffffffffffffffffffffffffffffffffffff16815260200191505060405180910390f35b341561058a57600080fd5b6105b6600480803573ffffffffffffffffffffffffffffffffffffffff169060200190919050506114c5565b6040518082815260200191505060405180910390f35b34156105d757600080fd5b6105df61150d565b604051808215151515815260200191505060405180910390f35b341561060457600080fd5b61060c6115d5565b604051808273ffffffffffffffffffffffffffffffffffffffff1673ffffffffffffffffffffffffffffffffffffffff16815260200191505060405180910390f35b341561065957600080fd5b6106616115ff565b604051808273ffffffffffffffffffffffffffffffffffffffff1673ffffffffffffffffffffffffffffffffffffffff16815260200191505060405180910390f35b34156106ae57600080fd5b6106b6611625565b6040518080602001828103825283818151815260200191508051906020019080838360005b838110156106f65780820151818401526020810190506106db565b50505050905090810190601f1680156107235780820380516001836020036101000a031916815260200191505b509250505060405180910390f35b341561073c57600080fd5b610771600480803573ffffffffffffffffffffffffffffffffffffffff169060200190919080359060200190919050506116c3565b604051808215151515815260200191505060405180910390f35b341561079657600080fd5b6107b6600480803567ffffffffffffffff169060200190919050506118e2565b005b34156107c357600080fd5b6107f8600480803573ffffffffffffffffffffffffffffffffffffffff1690602001909190803590602001909190505061190e565b604051808215151515815260200191505060405180910390f35b341561081d57600080fd5b610849600480803573ffffffffffffffffffffffffffffffffffffffff16906020019091905050611b0a565b005b341561085657600080fd5b6108a1600480803573ffffffffffffffffffffffffffffffffffffffff1690602001909190803573ffffffffffffffffffffffffffffffffffffffff16906020019091905050611b4e565b6040518082815260200191505060405180910390f35b34156108c257600080fd5b6108ca611bd5565b604051808273ffffffffffffffffffffffffffffffffffffffff1673ffffffffffffffffffffffffffffffffffffffff16815260200191505060405180910390f35b341561091757600080fd5b610943600480803573ffffffffffffffffffffffffffffffffffffffff16906020019091905050611bfb565b005b600360149054906101000a900460ff1681565b60078054600181600116156101000203166002900480601f0160208091040260200160405190810160405280929190818152602001828054600181600116156101000203166002900480156109ee5780601f106109c3576101008083540402835291602001916109ee565b820191906000526020600020905b8154815290600101906020018083116109d157829003601f168201915b505050505081565b600081600260003373ffffffffffffffffffffffffffffffffffffffff1673ffffffffffffffffffffffffffffffffffffffff16815260200190815260200160002060008573ffffffffffffffffffffffffffffffffffffffff1673ffffffffffffffffffffffffffffffffffffffff168152602001908152602001600020819055508273ffffffffffffffffffffffffffffffffffffffff163373ffffffffffffffffffffffffffffffffffffffff167f8c5be1e5ebec7d5bd14f71427d1e84f3dd0314c0f7b2291e5b200ac8c7c3b925846040518082815260200191505060405180910390a36001905092915050565b6000600460009054906101000a900473ffffffffffffffffffffffffffffffffffffffff16905090565b6000600360159054906101000a900467ffffffffffffffff16905090565b6000600154905090565b60008073ffffffffffffffffffffffffffffffffffffffff168373ffffffffffffffffffffffffffffffffffffffff1614151515610b7757600080fd5b6000808573ffffffffffffffffffffffffffffffffffffffff1673ffffffffffffffffffffffffffffffffffffffff168152602001908152602001600020548211151515610bc457600080fd5b600260008573ffffffffffffffffffffffffffffffffffffffff1673ffffffffffffffffffffffffffffffffffffffff16815260200190815260200160002060003373ffffffffffffffffffffffffffffffffffffffff1673ffffffffffffffffffffffffffffffffffffffff168152602001908152602001600020548211151515610c4f57600080fd5b610ca0826000808773ffffffffffffffffffffffffffffffffffffffff1673ffffffffffffffffffffffffffffffffffffffff16815260200190815260200160002054611d5390919063ffffffff16565b6000808673ffffffffffffffffffffffffffffffffffffffff1673ffffffffffffffffffffffffffffffffffffffff16815260200190815260200160002081905550610d33826000808673ffffffffffffffffffffffffffffffffffffffff1673ffffffffffffffffffffffffffffffffffffffff16815260200190815260200160002054611d6c90919063ffffffff16565b6000808573ffffffffffffffffffffffffffffffffffffffff1673ffffffffffffffffffffffffffffffffffffffff16815260200190815260200160002081905550610e0482600260008773ffffffffffffffffffffffffffffffffffffffff1673ffffffffffffffffffffffffffffffffffffffff16815260200190815260200160002060003373ffffffffffffffffffffffffffffffffffffffff1673ffffffffffffffffffffffffffffffffffffffff16815260200190815260200160002054611d5390919063ffffffff16565b600260008673ffffffffffffffffffffffffffffffffffffffff1673ffffffffffffffffffffffffffffffffffffffff16815260200190815260200160002060003373ffffffffffffffffffffffffffffffffffffffff1673ffffffffffffffffffffffffffffffffffffffff168152602001908152602001600020819055508273ffffffffffffffffffffffffffffffffffffffff168473ffffffffffffffffffffffffffffffffffffffff167fddf252ad1be2c89b69c2b068fc378daa952ba7f163c4a11628f55a4df523b3ef846040518082815260200191505060405180910390a3600190509392505050565b60095481565b6000600360009054906101000a900473ffffffffffffffffffffffffffffffffffffffff1673ffffffffffffffffffffffffffffffffffffffff163373ffffffffffffffffffffffffffffffffffffffff16141515610f5857600080fd5b600360149054906101000a900460ff16151515610f7457600080fd5b610f8982600154611d6c90919063ffffffff16565b600181905550610fe0826000808673ffffffffffffffffffffffffffffffffffffffff1673ffffffffffffffffffffffffffffffffffffffff16815260200190815260200160002054611d6c90919063ffffffff16565b6000808573ffffffffffffffffffffffffffffffffffffffff1673ffffffffffffffffffffffffffffffffffffffff168152602001908152602001600020819055508273ffffffffffffffffffffffffffffffffffffffff167f0f6798a560793a54c3bcfe86a93cde1e73087d944c0ea20544137d4121396885836040518082815260200191505060405180910390a28273ffffffffffffffffffffffffffffffffffffffff16600073ffffffffffffffffffffffffffffffffffffffff167fddf252ad1be2c89b69c2b068fc378daa952ba7f163c4a11628f55a4df523b3ef846040518082815260200191505060405180910390a36001905092915050565b6000806000600560009054906101000a900473ffffffffffffffffffffffffffffffffffffffff1673ffffffffffffffffffffffffffffffffffffffff16630d8e6e2c6000604051602001526040518163ffffffff167c0100000000000000000000000000000000000000000000000000000000028152600401602060405180830381600087803b151561117357600080fd5b6102c65a03f1151561118457600080fd5b5050506040518051905067ffffffffffffffff1614156111ee576111a783611d8a565b905080600560006101000a81548173ffffffffffffffffffffffffffffffffffffffff021916908373ffffffffffffffffffffffffffffffffffffffff1602179055508091505b50919050565b600360159054906101000a900467ffffffffffffffff1681565b600080600260003373ffffffffffffffffffffffffffffffffffffffff1673ffffffffffffffffffffffffffffffffffffffff16815260200190815260200160002060008573ffffffffffffffffffffffffffffffffffffffff1673ffffffffffffffffffffffffffffffffffffffff1681526020019081526020016000205490508083111561131f576000600260003373ffffffffffffffffffffffffffffffffffffffff1673ffffffffffffffffffffffffffffffffffffffff16815260200190815260200160002060008673ffffffffffffffffffffffffffffffffffffffff1673ffffffffffffffffffffffffffffffffffffffff168152602001908152602001600020819055506113b3565b6113328382611d5390919063ffffffff16565b600260003373ffffffffffffffffffffffffffffffffffffffff1673ffffffffffffffffffffffffffffffffffffffff16815260200190815260200160002060008673ffffffffffffffffffffffffffffffffffffffff1673ffffffffffffffffffffffffffffffffffffffff168152602001908152602001600020819055505b8373ffffffffffffffffffffffffffffffffffffffff163373ffffffffffffffffffffffffffffffffffffffff167f8c5be1e5ebec7d5bd14f71427d1e84f3dd0314c0f7b2291e5b200ac8c7c3b925600260003373ffffffffffffffffffffffffffffffffffffffff1673ffffffffffffffffffffffffffffffffffffffff16815260200190815260200160002060008873ffffffffffffffffffffffffffffffffffffffff1673ffffffffffffffffffffffffffffffffffffffff168152602001908152602001600020546040518082815260200191505060405180910390a3600191505092915050565b600560009054906101000a900473ffffffffffffffffffffffffffffffffffffffff1681565b60008060008373ffffffffffffffffffffffffffffffffffffffff1673ffffffffffffffffffffffffffffffffffffffff168152602001908152602001600020549050919050565b6000600360009054906101000a900473ffffffffffffffffffffffffffffffffffffffff1673ffffffffffffffffffffffffffffffffffffffff163373ffffffffffffffffffffffffffffffffffffffff1614151561156b57600080fd5b600360149054906101000a900460ff1615151561158757600080fd5b6001600360146101000a81548160ff0219169083151502179055507fae5184fba832cb2b1f702aca6117b8d265eaf03ad33eb133f19dde0f5920fa0860405160405180910390a16001905090565b6000600660009054906101000a900473ffffffffffffffffffffffffffffffffffffffff16905090565b600660009054906101000a900473ffffffffffffffffffffffffffffffffffffffff1681565b60088054600181600116156101000203166002900480601f0160208091040260200160405190810160405280929190818152602001828054600181600116156101000203166002900480156116bb5780601f10611690576101008083540402835291602001916116bb565b820191906000526020600020905b81548152906001019060200180831161169e57829003601f168201915b505050505081565b60008073ffffffffffffffffffffffffffffffffffffffff168373ffffffffffffffffffffffffffffffffffffffff161415151561170057600080fd5b6000803373ffffffffffffffffffffffffffffffffffffffff1673ffffffffffffffffffffffffffffffffffffffff16815260200190815260200160002054821115151561174d57600080fd5b61179e826000803373ffffffffffffffffffffffffffffffffffffffff1673ffffffffffffffffffffffffffffffffffffffff16815260200190815260200160002054611d5390919063ffffffff16565b6000803373ffffffffffffffffffffffffffffffffffffffff1673ffffffffffffffffffffffffffffffffffffffff16815260200190815260200160002081905550611831826000808673ffffffffffffffffffffffffffffffffffffffff1673ffffffffffffffffffffffffffffffffffffffff16815260200190815260200160002054611d6c90919063ffffffff16565b6000808573ffffffffffffffffffffffffffffffffffffffff1673ffffffffffffffffffffffffffffffffffffffff168152602001908152602001600020819055508273ffffffffffffffffffffffffffffffffffffffff163373ffffffffffffffffffffffffffffffffffffffff167fddf252ad1be2c89b69c2b068fc378daa952ba7f163c4a11628f55a4df523b3ef846040518082815260200191505060405180910390a36001905092915050565b80600360156101000a81548167ffffffffffffffff021916908367ffffffffffffffff16021790555050565b600061199f82600260003373ffffffffffffffffffffffffffffffffffffffff1673ffffffffffffffffffffffffffffffffffffffff16815260200190815260200160002060008673ffffffffffffffffffffffffffffffffffffffff1673ffffffffffffffffffffffffffffffffffffffff16815260200190815260200160002054611d6c90919063ffffffff16565b600260003373ffffffffffffffffffffffffffffffffffffffff1673ffffffffffffffffffffffffffffffffffffffff16815260200190815260200160002060008573ffffffffffffffffffffffffffffffffffffffff1673ffffffffffffffffffffffffffffffffffffffff168152602001908152602001600020819055508273ffffffffffffffffffffffffffffffffffffffff163373ffffffffffffffffffffffffffffffffffffffff167f8c5be1e5ebec7d5bd14f71427d1e84f3dd0314c0f7b2291e5b200ac8c7c3b925600260003373ffffffffffffffffffffffffffffffffffffffff1673ffffffffffffffffffffffffffffffffffffffff16815260200190815260200160002060008773ffffffffffffffffffffffffffffffffffffffff1673ffffffffffffffffffffffffffffffffffffffff168152602001908152602001600020546040518082815260200191505060405180910390a36001905092915050565b80600460006101000a81548173ffffffffffffffffffffffffffffffffffffffff021916908373ffffffffffffffffffffffffffffffffffffffff16021790555050565b6000600260008473ffffffffffffffffffffffffffffffffffffffff1673ffffffffffffffffffffffffffffffffffffffff16815260200190815260200160002060008373ffffffffffffffffffffffffffffffffffffffff1673ffffffffffffffffffffffffffffffffffffffff16815260200190815260200160002054905092915050565b600460009054906101000a900473ffffffffffffffffffffffffffffffffffffffff1681565b600360009054906101000a900473ffffffffffffffffffffffffffffffffffffffff1673ffffffffffffffffffffffffffffffffffffffff163373ffffffffffffffffffffffffffffffffffffffff16141515611c5757600080fd5b600073ffffffffffffffffffffffffffffffffffffffff168173ffffffffffffffffffffffffffffffffffffffff1614151515611c9357600080fd5b8073ffffffffffffffffffffffffffffffffffffffff16600360009054906101000a900473ffffffffffffffffffffffffffffffffffffffff1673ffffffffffffffffffffffffffffffffffffffff167f8be0079c531659141344cd1fd0a4f28419497f9722a3daafe3b4186f6b6457e060405160405180910390a380600360006101000a81548173ffffffffffffffffffffffffffffffffffffffff021916908373ffffffffffffffffffffffffffffffffffffffff16021790555050565b6000828211151515611d6157fe5b818303905092915050565b6000808284019050838110151515611d8057fe5b8091505092915050565b6000806000611d97610ae8565b91508173ffffffffffffffffffffffffffffffffffffffff1663fcd3e5506000604051602001526040518163ffffffff167c0100000000000000000000000000000000000000000000000000000000028152600401602060405180830381600087803b1515611e0557600080fd5b6102c65a03f11515611e1657600080fd5b5050506040518051905090508073ffffffffffffffffffffffffffffffffffffffff16639d310162856000604051602001526040518263ffffffff167c0100000000000000000000000000000000000000000000000000000000028152600401808273ffffffffffffffffffffffffffffffffffffffff1673ffffffffffffffffffffffffffffffffffffffff168152602001915050602060405180830381600087803b1515611ec557600080fd5b6102c65a03f11515611ed657600080fd5b5050506040518051905092508173ffffffffffffffffffffffffffffffffffffffff1663b4db0ef385856040518363ffffffff167c0100000000000000000000000000000000000000000000000000000000028152600401808373ffffffffffffffffffffffffffffffffffffffff1673ffffffffffffffffffffffffffffffffffffffff1681526020018273ffffffffffffffffffffffffffffffffffffffff1673ffffffffffffffffffffffffffffffffffffffff16815260200192505050600060405180830381600087803b1515611fb057600080fd5b6102c65a03f11515611fc157600080fd5b50505050509190505600a165627a7a72305820b44b489eb6bef79f4c0f4c9486b921a4ae2b2cf15bb4e2a7822af74e4a6bd8c00029a165627a7a7230582075ce8fe6f72692fe50075cc264dedb49d24b8dc69386bd8cfd1b7b38569c3c280029",
  "source": "pragma solidity ^0.4.17;\r\n\r\nimport \"./Astral.sol\";\r\nimport \"../node_modules/zeppelin-solidity/contracts/token/ERC20/MintableToken.sol\";\r\n\r\ncontract SampleToken is MintableToken,iDocument {\r\n\r\nfunction SampleToken(address _owner,iBaseHolder _daoCreator ) public iDocument(_owner,_daoCreator){\r\n      version=2;\r\n}\r\n\r\n  string public name = \"SampleToken\";\r\n  string public symbol = \"SMT\";\r\n  uint256 public decimals = 18;\r\n\r\n}\r\n\r\n\r\n\r\ncontract SampleTokenCreator is iCreator{\r\n\r\n    function SampleTokenCreator(iBaseHolder _holder) public iCreator(_holder){\r\n      version=2;\r\n    }\r\n\r\n    function createDocument(\r\n        address _curator\r\n    ) returns (iDocument _newDocument) {\r\n\r\n     /*   dao.push( new DAO(\r\n            _curator,\r\n            this\r\n        ));\r\n        _newDAO = dao[lastContractId];\r\n        lastContractId++;*/\r\n        _newDocument = new SampleToken(_curator,getHolder());\r\n\r\n    }\r\n}\r\n",
  "sourcePath": "D:\\blockchainDiploma\\truffletest\\contracts\\VersionableContract.sol",
  "compiler": {
    "name": "solc",
    "version": "0.4.19+commit.c4cbbb05.Emscripten.clang"
  },
  "schemaVersion": "2.0.0",
  "updatedAt": "2018-04-06T17:58:35.753Z"
}