{
  "contractName": "SampleTokenCreator",
  "abi": [
    {
      "constant": true,
      "inputs": [],
      "name": "getHolder",
      "outputs": [
        {
          "name": "bh",
          "type": "address"
        }
      ],
      "payable": false,
      "stateMutability": "view",
      "type": "function"
    },
    {
      "constant": true,
      "inputs": [],
      "name": "getVersion",
      "outputs": [
        {
          "name": "_version",
          "type": "uint64"
        }
      ],
      "payable": false,
      "stateMutability": "view",
      "type": "function"
    },
    {
      "constant": true,
      "inputs": [],
      "name": "version",
      "outputs": [
        {
          "name": "",
          "type": "uint64"
        }
      ],
      "payable": false,
      "stateMutability": "view",
      "type": "function"
    },
    {
      "constant": true,
      "inputs": [],
      "name": "successor",
      "outputs": [
        {
          "name": "",
          "type": "address"
        }
      ],
      "payable": false,
      "stateMutability": "view",
      "type": "function"
    },
    {
      "constant": false,
      "inputs": [
        {
          "name": "bh",
          "type": "address"
        }
      ],
      "name": "setHolder",
      "outputs": [],
      "payable": false,
      "stateMutability": "nonpayable",
      "type": "function"
    },
    {
      "constant": true,
      "inputs": [],
      "name": "holder",
      "outputs": [
        {
          "name": "",
          "type": "address"
        }
      ],
      "payable": false,
      "stateMutability": "view",
      "type": "function"
    },
    {
      "inputs": [
        {
          "name": "_holder",
          "type": "address"
        },
        {
          "name": "_version",
          "type": "uint64"
        }
      ],
      "payable": false,
      "stateMutability": "nonpayable",
      "type": "constructor"
    },
    {
      "constant": false,
      "inputs": [
        {
          "name": "_curator",
          "type": "address"
        }
      ],
      "name": "createDocument",
      "outputs": [
        {
          "name": "_newDocument",
          "type": "address"
        }
      ],
      "payable": false,
      "stateMutability": "nonpayable",
      "type": "function"
    }
  ],
  "bytecode": "0x6060604052341561000f57600080fd5b60405160408061133f8339810160405280805190602001909190805190602001909190505081818181806000806101000a81548167ffffffffffffffff021916908367ffffffffffffffff16021790555081600060086101000a81548173ffffffffffffffffffffffffffffffffffffffff021916908373ffffffffffffffffffffffffffffffffffffffff160217905550505050505050611289806100b66000396000f300606060405260043610610083576000357c0100000000000000000000000000000000000000000000000000000000900463ffffffff1680630c05b3c5146100885780630d8e6e2c146100dd57806354fd4d501461011a5780636ff968c3146101575780639d310162146101ac578063d979f5aa14610225578063e534155d1461025e575b600080fd5b341561009357600080fd5b61009b6102b3565b604051808273ffffffffffffffffffffffffffffffffffffffff1673ffffffffffffffffffffffffffffffffffffffff16815260200191505060405180910390f35b34156100e857600080fd5b6100f06102dc565b604051808267ffffffffffffffff1667ffffffffffffffff16815260200191505060405180910390f35b341561012557600080fd5b61012d6102f9565b604051808267ffffffffffffffff1667ffffffffffffffff16815260200191505060405180910390f35b341561016257600080fd5b61016a610312565b604051808273ffffffffffffffffffffffffffffffffffffffff1673ffffffffffffffffffffffffffffffffffffffff16815260200191505060405180910390f35b34156101b757600080fd5b6101e3600480803573ffffffffffffffffffffffffffffffffffffffff16906020019091905050610338565b604051808273ffffffffffffffffffffffffffffffffffffffff1673ffffffffffffffffffffffffffffffffffffffff16815260200191505060405180910390f35b341561023057600080fd5b61025c600480803573ffffffffffffffffffffffffffffffffffffffff169060200190919050506103ca565b005b341561026957600080fd5b61027161040e565b604051808273ffffffffffffffffffffffffffffffffffffffff1673ffffffffffffffffffffffffffffffffffffffff16815260200191505060405180910390f35b60008060089054906101000a900473ffffffffffffffffffffffffffffffffffffffff16905090565b60008060009054906101000a900467ffffffffffffffff16905090565b6000809054906101000a900467ffffffffffffffff1681565b600160009054906101000a900473ffffffffffffffffffffffffffffffffffffffff1681565b60008130610344610434565b808373ffffffffffffffffffffffffffffffffffffffff1673ffffffffffffffffffffffffffffffffffffffff1681526020018273ffffffffffffffffffffffffffffffffffffffff1673ffffffffffffffffffffffffffffffffffffffff16815260200192505050604051809103906000f08015156103c357600080fd5b9050919050565b80600060086101000a81548173ffffffffffffffffffffffffffffffffffffffff021916908373ffffffffffffffffffffffffffffffffffffffff16021790555050565b600060089054906101000a900473ffffffffffffffffffffffffffffffffffffffff1681565b604051610e198061044583390190560060606040526040805190810160405280600b81526020017f53616d706c65546f6b656e0000000000000000000000000000000000000000008152506003908051906020019061004f92919061025f565b506040805190810160405280600381526020017f534d5400000000000000000000000000000000000000000000000000000000008152506004908051906020019061009b92919061025f565b50601260055534156100ac57600080fd5b604051604080610e1983398101604052808051906020019091908051906020019091905050818160008173ffffffffffffffffffffffffffffffffffffffff16630c05b3c56000604051602001526040518163ffffffff167c0100000000000000000000000000000000000000000000000000000000028152600401602060405180830381600087803b151561014157600080fd5b6102c65a03f1151561015257600080fd5b505050604051805190506001806000806101000a81548167ffffffffffffffff021916908367ffffffffffffffff16021790555081600060086101000a81548173ffffffffffffffffffffffffffffffffffffffff021916908373ffffffffffffffffffffffffffffffffffffffff160217905550505081905082600260006101000a81548173ffffffffffffffffffffffffffffffffffffffff021916908373ffffffffffffffffffffffffffffffffffffffff16021790555050505061022d600261023464010000000002610aaf176401000000009004565b5050610304565b806000806101000a81548167ffffffffffffffff021916908367ffffffffffffffff16021790555050565b828054600181600116156101000203166002900490600052602060002090601f016020900481019282601f106102a057805160ff19168380011785556102ce565b828001600101855582156102ce579182015b828111156102cd5782518255916020019190600101906102b2565b5b5090506102db91906102df565b5090565b61030191905b808211156102fd5760008160009055506001016102e5565b5090565b90565b610b06806103136000396000f3006060604052600436106100ba576000357c0100000000000000000000000000000000000000000000000000000000900463ffffffff16806306fdde03146100bf5780630c05b3c51461014d5780630d8e6e2c146101a2578063313ce567146101df57806346995b1b1461020857806354fd4d50146102815780636ff968c3146102be578063893d20e8146103135780638da5cb5b1461036857806395d89b41146103bd578063d979f5aa1461044b578063e534155d14610484575b600080fd5b34156100ca57600080fd5b6100d26104d9565b6040518080602001828103825283818151815260200191508051906020019080838360005b838110156101125780820151818401526020810190506100f7565b50505050905090810190601f16801561013f5780820380516001836020036101000a031916815260200191505b509250505060405180910390f35b341561015857600080fd5b610160610577565b604051808273ffffffffffffffffffffffffffffffffffffffff1673ffffffffffffffffffffffffffffffffffffffff16815260200191505060405180910390f35b34156101ad57600080fd5b6101b56105a0565b604051808267ffffffffffffffff1667ffffffffffffffff16815260200191505060405180910390f35b34156101ea57600080fd5b6101f26105bd565b6040518082815260200191505060405180910390f35b341561021357600080fd5b61023f600480803573ffffffffffffffffffffffffffffffffffffffff169060200190919050506105c3565b604051808273ffffffffffffffffffffffffffffffffffffffff1673ffffffffffffffffffffffffffffffffffffffff16815260200191505060405180910390f35b341561028c57600080fd5b6102946106d7565b604051808267ffffffffffffffff1667ffffffffffffffff16815260200191505060405180910390f35b34156102c957600080fd5b6102d16106f0565b604051808273ffffffffffffffffffffffffffffffffffffffff1673ffffffffffffffffffffffffffffffffffffffff16815260200191505060405180910390f35b341561031e57600080fd5b610326610716565b604051808273ffffffffffffffffffffffffffffffffffffffff1673ffffffffffffffffffffffffffffffffffffffff16815260200191505060405180910390f35b341561037357600080fd5b61037b610740565b604051808273ffffffffffffffffffffffffffffffffffffffff1673ffffffffffffffffffffffffffffffffffffffff16815260200191505060405180910390f35b34156103c857600080fd5b6103d0610766565b6040518080602001828103825283818151815260200191508051906020019080838360005b838110156104105780820151818401526020810190506103f5565b50505050905090810190601f16801561043d5780820380516001836020036101000a031916815260200191505b509250505060405180910390f35b341561045657600080fd5b610482600480803573ffffffffffffffffffffffffffffffffffffffff16906020019091905050610804565b005b341561048f57600080fd5b610497610848565b604051808273ffffffffffffffffffffffffffffffffffffffff1673ffffffffffffffffffffffffffffffffffffffff16815260200191505060405180910390f35b60038054600181600116156101000203166002900480601f01602080910402602001604051908101604052809291908181526020018280546001816001161561010002031660029004801561056f5780601f106105445761010080835404028352916020019161056f565b820191906000526020600020905b81548152906001019060200180831161055257829003601f168201915b505050505081565b60008060089054906101000a900473ffffffffffffffffffffffffffffffffffffffff16905090565b60008060009054906101000a900467ffffffffffffffff16905090565b60055481565b6000806000600160009054906101000a900473ffffffffffffffffffffffffffffffffffffffff1673ffffffffffffffffffffffffffffffffffffffff16630d8e6e2c6000604051602001526040518163ffffffff167c0100000000000000000000000000000000000000000000000000000000028152600401602060405180830381600087803b151561065657600080fd5b6102c65a03f1151561066757600080fd5b5050506040518051905067ffffffffffffffff1614156106d15761068a8361086e565b905080600160006101000a81548173ffffffffffffffffffffffffffffffffffffffff021916908373ffffffffffffffffffffffffffffffffffffffff1602179055508091505b50919050565b6000809054906101000a900467ffffffffffffffff1681565b600160009054906101000a900473ffffffffffffffffffffffffffffffffffffffff1681565b6000600260009054906101000a900473ffffffffffffffffffffffffffffffffffffffff16905090565b600260009054906101000a900473ffffffffffffffffffffffffffffffffffffffff1681565b60048054600181600116156101000203166002900480601f0160208091040260200160405190810160405280929190818152602001828054600181600116156101000203166002900480156107fc5780601f106107d1576101008083540402835291602001916107fc565b820191906000526020600020905b8154815290600101906020018083116107df57829003601f168201915b505050505081565b80600060086101000a81548173ffffffffffffffffffffffffffffffffffffffff021916908373ffffffffffffffffffffffffffffffffffffffff16021790555050565b600060089054906101000a900473ffffffffffffffffffffffffffffffffffffffff1681565b600080600061087b610577565b91508173ffffffffffffffffffffffffffffffffffffffff1663fcd3e5506000604051602001526040518163ffffffff167c0100000000000000000000000000000000000000000000000000000000028152600401602060405180830381600087803b15156108e957600080fd5b6102c65a03f115156108fa57600080fd5b5050506040518051905090508073ffffffffffffffffffffffffffffffffffffffff16639d310162856000604051602001526040518263ffffffff167c0100000000000000000000000000000000000000000000000000000000028152600401808273ffffffffffffffffffffffffffffffffffffffff1673ffffffffffffffffffffffffffffffffffffffff168152602001915050602060405180830381600087803b15156109a957600080fd5b6102c65a03f115156109ba57600080fd5b5050506040518051905092508173ffffffffffffffffffffffffffffffffffffffff1663b4db0ef385856040518363ffffffff167c0100000000000000000000000000000000000000000000000000000000028152600401808373ffffffffffffffffffffffffffffffffffffffff1673ffffffffffffffffffffffffffffffffffffffff1681526020018273ffffffffffffffffffffffffffffffffffffffff1673ffffffffffffffffffffffffffffffffffffffff16815260200192505050600060405180830381600087803b1515610a9457600080fd5b6102c65a03f11515610aa557600080fd5b5050505050919050565b806000806101000a81548167ffffffffffffffff021916908367ffffffffffffffff160217905550505600a165627a7a72305820a7bdd415b626a6a0ccc8f57d683a06869a3cad388d25f3df4443a5cf113655450029a165627a7a72305820c0c22d0083aa9d2299ad157299d584e7a21a1ee0ce6237de67e83846b1aee5b00029",
  "source": "import \"../node_modules/zeppelin-solidity/contracts/token/ERC20/MintableToken.sol\";\r\nimport \"../node_modules/zeppelin-solidity/contracts/token/ERC20/MintableToken.sol\";\r\nimport \"../node_modules/zeppelin-solidity/contracts/crowdsale/Crowdsale.sol\";\r\nimport \"./Astral.sol\";\r\n\r\n\r\ncontract SampleToken is iDocument {\r\n\r\nfunction SampleToken(address _owner,iCreator _creator ) public iDocument(_owner,_creator){\r\n      setVersion(2);\r\n}\r\n  string public name = \"SampleToken\";\r\n  string public symbol = \"SMT\";\r\n  uint256 public decimals = 18;\r\n\r\n}\r\n\r\ncontract SampleTokenCreator is iCreator{\r\n\r\n    function SampleTokenCreator(iBaseHolder _holder, uint64 _version) public iCreator(_holder, _version) {\r\n    }\r\n\r\n    function createDocument(\r\n        address _curator\r\n    ) returns (iDocument _newDocument) {\r\n        _newDocument = new SampleToken(_curator,this);\r\n    }\r\n}\r\n\r\ncontract SampleContract is iDocument, Crowdsale {\r\n\r\nfunction SampleContract(address _owner, iCreator _creator ) public iDocument(_owner, _creator) {\r\n      setVersion(2);\r\n}\r\n\r\n\r\n}\r\n",
  "sourcePath": "D:\\blockchainDiploma\\truffletest\\contracts\\ICO.sol",
  "compiler": {
    "name": "solc",
    "version": "0.4.19+commit.c4cbbb05.Emscripten.clang"
  },
  "schemaVersion": "2.0.0",
  "updatedAt": "2018-04-15T15:50:04.637Z"
}