{
  "contractName": "Storage",
  "abi": [
    {
      "constant": true,
      "inputs": [],
      "name": "owner",
      "outputs": [
        {
          "name": "",
          "type": "address"
        }
      ],
      "payable": false,
      "stateMutability": "view",
      "type": "function"
    },
    {
      "constant": false,
      "inputs": [
        {
          "name": "newOwner",
          "type": "address"
        }
      ],
      "name": "transferOwnership",
      "outputs": [],
      "payable": false,
      "stateMutability": "nonpayable",
      "type": "function"
    },
    {
      "inputs": [],
      "payable": false,
      "stateMutability": "nonpayable",
      "type": "constructor"
    },
    {
      "anonymous": false,
      "inputs": [
        {
          "indexed": true,
          "name": "previousOwner",
          "type": "address"
        },
        {
          "indexed": true,
          "name": "newOwner",
          "type": "address"
        }
      ],
      "name": "OwnershipTransferred",
      "type": "event"
    },
    {
      "constant": true,
      "inputs": [
        {
          "name": "contractType",
          "type": "string"
        }
      ],
      "name": "getLatestCreator",
      "outputs": [
        {
          "name": "_creator",
          "type": "address"
        }
      ],
      "payable": false,
      "stateMutability": "view",
      "type": "function"
    },
    {
      "constant": false,
      "inputs": [
        {
          "name": "contractType",
          "type": "string"
        },
        {
          "name": "holder",
          "type": "address"
        }
      ],
      "name": "addHolder",
      "outputs": [],
      "payable": false,
      "stateMutability": "nonpayable",
      "type": "function"
    }
  ],
  "bytecode": "0x6060604052341561000f57600080fd5b336000806101000a81548173ffffffffffffffffffffffffffffffffffffffff021916908373ffffffffffffffffffffffffffffffffffffffff160217905550336000806101000a81548173ffffffffffffffffffffffffffffffffffffffff021916908373ffffffffffffffffffffffffffffffffffffffff1602179055506105258061009e6000396000f300606060405260043610610062576000357c0100000000000000000000000000000000000000000000000000000000900463ffffffff1680630a56d261146100675780638da5cb5b146100d5578063c2a1796d1461012a578063f2fde38b146101a6575b600080fd5b341561007257600080fd5b610093600480803590602001908201803590602001919091929050506101df565b604051808273ffffffffffffffffffffffffffffffffffffffff1673ffffffffffffffffffffffffffffffffffffffff16815260200191505060405180910390f35b34156100e057600080fd5b6100e86102c3565b604051808273ffffffffffffffffffffffffffffffffffffffff1673ffffffffffffffffffffffffffffffffffffffff16815260200191505060405180910390f35b341561013557600080fd5b6101a4600480803590602001908201803590602001908080601f0160208091040260200160405190810160405280939291908181526020018383808284378201915050505050509190803573ffffffffffffffffffffffffffffffffffffffff169060200190919050506102e8565b005b34156101b157600080fd5b6101dd600480803573ffffffffffffffffffffffffffffffffffffffff169060200190919050506103a4565b005b600060016000848460405180838380828437820191505092505050604051809103902060019004815260200190815260200160002060009054906101000a900473ffffffffffffffffffffffffffffffffffffffff1673ffffffffffffffffffffffffffffffffffffffff1663fcd3e5506000604051602001526040518163ffffffff167c0100000000000000000000000000000000000000000000000000000000028152600401602060405180830381600087803b15156102a057600080fd5b6102c65a03f115156102b157600080fd5b50505060405180519050905092915050565b6000809054906101000a900473ffffffffffffffffffffffffffffffffffffffff1681565b8060016000846040518082805190602001908083835b60208310151561032357805182526020820191506020810190506020830392506102fe565b6001836020036101000a038019825116818451168082178552505050505050905001915050604051809103902060019004815260200190815260200160002060006101000a81548173ffffffffffffffffffffffffffffffffffffffff021916908373ffffffffffffffffffffffffffffffffffffffff1602179055505050565b6000809054906101000a900473ffffffffffffffffffffffffffffffffffffffff1673ffffffffffffffffffffffffffffffffffffffff163373ffffffffffffffffffffffffffffffffffffffff161415156103ff57600080fd5b600073ffffffffffffffffffffffffffffffffffffffff168173ffffffffffffffffffffffffffffffffffffffff161415151561043b57600080fd5b8073ffffffffffffffffffffffffffffffffffffffff166000809054906101000a900473ffffffffffffffffffffffffffffffffffffffff1673ffffffffffffffffffffffffffffffffffffffff167f8be0079c531659141344cd1fd0a4f28419497f9722a3daafe3b4186f6b6457e060405160405180910390a3806000806101000a81548173ffffffffffffffffffffffffffffffffffffffff021916908373ffffffffffffffffffffffffffffffffffffffff160217905550505600a165627a7a72305820a686a27e2ed79ad4ff3020de7a073ec9eaf4c4fe5a3304183f6184c9dfdd3ab00029",
  "source": "pragma solidity ^0.4.17;\r\n\r\n\r\nimport \"../node_modules/zeppelin-solidity/contracts/ownership/Ownable.sol\";\r\nimport \"../node_modules/zeppelin-solidity/contracts/token/ERC20/MintableToken.sol\";\r\n\r\ncontract iVersionable {\r\n\r\n    function iVersionable(   iBaseHolder _holder, uint64 _version\r\n    ) public {\r\n        version = _version;\r\n        holder = _holder;\r\n      //  successor.setVersion(0);\r\n      }\r\n\r\n    uint64 public version;\r\n    iBaseHolder public holder;\r\n    iVersionable public successor;\r\n\r\n    function getVersion() public view returns (uint64 _version){\r\n        _version=version;\r\n    }\r\n    function setVersion(uint64 _version) internal {\r\n        version=_version;\r\n    }\r\n    function setHolder(iBaseHolder bh) public{\r\n        holder = bh;\r\n    }\r\n\r\n    function getHolder() public view returns (iBaseHolder bh){\r\n        bh=holder;\r\n    }\r\n\r\n}\r\n\r\n\r\ncontract iBaseHolder{\r\n    function iBaseHolder()public {\r\n        newestVersion=0;\r\n    }\r\n\r\n    mapping (uint64 => address) iCreators;\r\n    mapping (uint64 => mapping (address => address)) allDocuments;\r\n\r\n    uint64 private newestVersion;\r\n    function updateCreator(address anotherCreator) public {\r\n        iCreator crt = iCreator(anotherCreator);\r\n        uint64 _creatorVersion=crt.getVersion();\r\n        require(_creatorVersion>newestVersion/*,'iCreator is too old, try newer one'*/);\r\n        crt.setHolder(this);\r\n        iCreators[_creatorVersion]=crt;\r\n        newestVersion=_creatorVersion;\r\n\r\n    }\r\n\r\n    function getCreator(uint64 version) public view  returns (iCreator _creator){\r\n        require(version<=newestVersion/*,'no creator for that version, it\\'s unimplemented yet'*/);\r\n        _creator =iCreator( iCreators[version]);\r\n    }\r\n\r\n    function getLatestCreator() public view returns (iCreator _creator){\r\n        _creator =getCreator(newestVersion);\r\n    }\r\n\r\n    function registerDocument(address _owner, iDocument document) public {\r\n\r\n        uint64 _documentVersion=document.getVersion();\r\n        require (_documentVersion<=newestVersion/*,'document source unspecified!'*/);\r\n\r\n        mapping (address => address) docsForVersion = allDocuments[_documentVersion];\r\n        address docExists = docsForVersion[_owner];\r\n        require(docExists==0/*,'document already created!'*/);\r\n        docsForVersion[_owner]=document;\r\n\r\n    }\r\n\r\n}\r\n\r\ncontract Storage is Ownable{\r\n  function Storage() public Ownable(){\r\n      owner=msg.sender;\r\n  }\r\n  mapping (uint256 => iBaseHolder) holdersByType;\r\n\r\n  function getLatestCreator(string contractType) external view returns (iCreator _creator){\r\n     return holdersByType[ uint256(keccak256(contractType))].getLatestCreator();\r\n  }\r\n  function addHolder(string contractType,iBaseHolder holder) public {\r\n     holdersByType[uint256(keccak256(contractType))]=holder;\r\n  }\r\n}\r\n\r\ncontract iCreator is iVersionable{\r\n\r\n    function iCreator(iBaseHolder _holder,uint64 version)public iVersionable(_holder,version){\r\n\r\n    }\r\n\r\n    function createDocument(address _curator ) public returns (iDocument _newDocument) {\r\n        _newDocument = new iDocument(_curator,this);\r\n\r\n    }\r\n}\r\n\r\ncontract iDocument is iVersionable {\r\n    address public  owner;\r\n\r\n    function iDocument(address _owner, iCreator _creator) public iVersionable(_creator.getHolder(),1) {\r\n        iCreator crt1232 = iCreator(_creator);\r\n        owner=_owner;\r\n    }\r\n\r\n    function wantSameContract(  address _newOwner) public returns (iDocument _successor) {\r\n        if(successor.getVersion()==0){\r\n            iDocument newDoc = createNewDoc(_newOwner);\r\n            successor=newDoc;\r\n            _successor=newDoc;\r\n        }\r\n    }\r\n\r\n    function getOwner() public view returns  (address _owner){\r\n        _owner=owner;\r\n    }\r\n\r\n    function createNewDoc(address _newOwner) internal returns (iDocument _newDoc) {\r\n       iBaseHolder holder = getHolder();\r\n\r\n       iCreator creator = holder.getLatestCreator();\r\n\r\n        _newDoc =creator.createDocument(_newOwner);\r\n           holder.registerDocument(_newOwner, _newDoc);\r\n    }\r\n\r\n}\r\n\r\ncontract SampleToken is iDocument {\r\n\r\nfunction SampleToken(address _owner,iCreator _creator ) public iDocument(_owner,_creator){\r\n      setVersion(2);\r\n}\r\n\r\n  string public name = \"SampleToken\";\r\n  string public symbol = \"SMT\";\r\n  uint256 public decimals = 18;\r\n\r\n}\r\n\r\n\r\n\r\ncontract SampleTokenCreator is iCreator{\r\n\r\n    function SampleTokenCreator(iBaseHolder _holder,uint64 _version) public iCreator(_holder,_version){\r\n    }\r\n\r\n    function createDocument(\r\n        address _curator\r\n    ) returns (iDocument _newDocument) {\r\n        _newDocument = new SampleToken(_curator,this);\r\n    }\r\n}\r\n",
  "sourcePath": "D:\\blockchainDiploma\\truffletest\\contracts\\Astral.sol",
  "compiler": {
    "name": "solc",
    "version": "0.4.19+commit.c4cbbb05.Emscripten.clang"
  },
  "schemaVersion": "2.0.0",
  "updatedAt": "2018-04-15T15:30:25.980Z"
}