{
  "contractName": "iBaseHolder",
  "abi": [
    {
      "inputs": [],
      "payable": false,
      "stateMutability": "nonpayable",
      "type": "constructor"
    },
    {
      "constant": false,
      "inputs": [
        {
          "name": "anotherCreator",
          "type": "address"
        }
      ],
      "name": "updateCreator",
      "outputs": [],
      "payable": false,
      "stateMutability": "nonpayable",
      "type": "function"
    },
    {
      "constant": true,
      "inputs": [
        {
          "name": "version",
          "type": "uint64"
        }
      ],
      "name": "getCreator",
      "outputs": [
        {
          "name": "_creator",
          "type": "address"
        }
      ],
      "payable": false,
      "stateMutability": "view",
      "type": "function"
    },
    {
      "constant": true,
      "inputs": [],
      "name": "getLatestCreator",
      "outputs": [
        {
          "name": "_creator",
          "type": "address"
        }
      ],
      "payable": false,
      "stateMutability": "view",
      "type": "function"
    },
    {
      "constant": false,
      "inputs": [
        {
          "name": "_owner",
          "type": "address"
        },
        {
          "name": "document",
          "type": "address"
        }
      ],
      "name": "registerDocument",
      "outputs": [],
      "payable": false,
      "stateMutability": "nonpayable",
      "type": "function"
    }
  ],
  "bytecode": "0x6060604052341561000f57600080fd5b6000600260006101000a81548167ffffffffffffffff021916908367ffffffffffffffff160217905550610692806100486000396000f300606060405260043610610062576000357c0100000000000000000000000000000000000000000000000000000000900463ffffffff1680631a2084f1146100675780635dd31c3d146100a0578063b4db0ef31461010d578063fcd3e55014610165575b600080fd5b341561007257600080fd5b61009e600480803573ffffffffffffffffffffffffffffffffffffffff169060200190919050506101ba565b005b34156100ab57600080fd5b6100cb600480803567ffffffffffffffff169060200190919050506103bd565b604051808273ffffffffffffffffffffffffffffffffffffffff1673ffffffffffffffffffffffffffffffffffffffff16815260200191505060405180910390f35b341561011857600080fd5b610163600480803573ffffffffffffffffffffffffffffffffffffffff1690602001909190803573ffffffffffffffffffffffffffffffffffffffff16906020019091905050610446565b005b341561017057600080fd5b610178610640565b604051808273ffffffffffffffffffffffffffffffffffffffff1673ffffffffffffffffffffffffffffffffffffffff16815260200191505060405180910390f35b60008173ffffffffffffffffffffffffffffffffffffffff16630d8e6e2c6000604051602001526040518163ffffffff167c0100000000000000000000000000000000000000000000000000000000028152600401602060405180830381600087803b151561022857600080fd5b6102c65a03f1151561023957600080fd5b505050604051805190509050600260009054906101000a900467ffffffffffffffff1667ffffffffffffffff168167ffffffffffffffff1611151561027d57600080fd5b8173ffffffffffffffffffffffffffffffffffffffff1663d979f5aa306040518263ffffffff167c0100000000000000000000000000000000000000000000000000000000028152600401808273ffffffffffffffffffffffffffffffffffffffff1673ffffffffffffffffffffffffffffffffffffffff168152602001915050600060405180830381600087803b151561031757600080fd5b6102c65a03f1151561032857600080fd5b505050816000808367ffffffffffffffff1667ffffffffffffffff16815260200190815260200160002060006101000a81548173ffffffffffffffffffffffffffffffffffffffff021916908373ffffffffffffffffffffffffffffffffffffffff16021790555080600260006101000a81548167ffffffffffffffff021916908367ffffffffffffffff1602179055505050565b6000600260009054906101000a900467ffffffffffffffff1667ffffffffffffffff168267ffffffffffffffff16111515156103f857600080fd5b6000808367ffffffffffffffff1667ffffffffffffffff16815260200190815260200160002060009054906101000a900473ffffffffffffffffffffffffffffffffffffffff169050919050565b60008060008373ffffffffffffffffffffffffffffffffffffffff16630d8e6e2c6000604051602001526040518163ffffffff167c0100000000000000000000000000000000000000000000000000000000028152600401602060405180830381600087803b15156104b757600080fd5b6102c65a03f115156104c857600080fd5b505050604051805190509250600260009054906101000a900467ffffffffffffffff1667ffffffffffffffff168367ffffffffffffffff161115151561050d57600080fd5b600160008467ffffffffffffffff1667ffffffffffffffff16815260200190815260200160002091508160008673ffffffffffffffffffffffffffffffffffffffff1673ffffffffffffffffffffffffffffffffffffffff16815260200190815260200160002060009054906101000a900473ffffffffffffffffffffffffffffffffffffffff16905060008173ffffffffffffffffffffffffffffffffffffffff161415156105bc57600080fd5b838260008773ffffffffffffffffffffffffffffffffffffffff1673ffffffffffffffffffffffffffffffffffffffff16815260200190815260200160002060006101000a81548173ffffffffffffffffffffffffffffffffffffffff021916908373ffffffffffffffffffffffffffffffffffffffff1602179055505050505050565b6000610661600260009054906101000a900467ffffffffffffffff166103bd565b9050905600a165627a7a723058207e0c554f086d6872e2a2cbb003f6f6fda3ba8f4dd0f83069bee316bcf6ecb9690029",
  "source": "pragma solidity ^0.4.17;\r\n\r\n\r\nimport \"../node_modules/zeppelin-solidity/contracts/ownership/Ownable.sol\";\r\n\r\ncontract iVersionable {\r\n\r\n    function iVersionable(  uint64 _version,\r\n      iBaseHolder _holder) public {\r\n        version = _version;\r\n        holder = _holder;\r\n      //  successor.setVersion(0);\r\n      }\r\n\r\n    uint64 public version;\r\n    iBaseHolder public holder;\r\n    iVersionable public successor;\r\n\r\n    function getVersion() public view returns (uint64 _version){\r\n        _version=version;\r\n    }\r\n    function setVersion(uint64 _version) internal {\r\n        version=_version;\r\n    }\r\n    function setHolder(iBaseHolder bh) public{\r\n        holder = bh;\r\n    }\r\n\r\n    function getHolder() public view returns (iBaseHolder bh){\r\n        bh=holder;\r\n    }\r\n\r\n}\r\n\r\n\r\ncontract iBaseHolder{\r\n    function iBaseHolder()public {\r\n        newestVersion=0;\r\n    }\r\n\r\n    mapping (uint64 => address) iCreators;\r\n    mapping (uint64 => mapping (address => address)) allDocuments;\r\n\r\n    uint64 private newestVersion;\r\n    function updateCreator(iCreator anotherCreator) public {\r\n        uint64 _creatorVersion=anotherCreator.getVersion();\r\n        require(_creatorVersion>newestVersion/*,'iCreator is too old, try newer one'*/);\r\n        anotherCreator.setHolder(this);\r\n        iCreators[_creatorVersion]=anotherCreator;\r\n        newestVersion=_creatorVersion;\r\n\r\n    }\r\n\r\n    function getCreator(uint64 version) public view  returns (iCreator _creator){\r\n        require(version<=newestVersion/*,'no creator for that version, it\\'s unimplemented yet'*/);\r\n        _creator =iCreator( iCreators[version]);\r\n    }\r\n\r\n    function getLatestCreator() public view returns (iCreator _creator){\r\n        _creator =getCreator(newestVersion);\r\n    }\r\n\r\n    function registerDocument(address _owner, iDocument document) public {\r\n\r\n        uint64 _documentVersion=document.getVersion();\r\n        require (_documentVersion<=newestVersion/*,'document source unspecified!'*/);\r\n\r\n        mapping (address => address) docsForVersion = allDocuments[_documentVersion];\r\n        address docExists = docsForVersion[_owner];\r\n        require(docExists==0/*,'document already created!'*/);\r\n        docsForVersion[_owner]=document;\r\n\r\n    }\r\n\r\n}\r\n\r\ncontract Storage is Ownable{\r\n  function Storage() public Ownable(){\r\n      owner=msg.sender;\r\n  }\r\n  mapping (uint256 => iBaseHolder) holdersByType;\r\n  function getLatestCreator(string contractType) external view returns (iCreator _creator){\r\n     return holdersByType[ uint256(keccak256(contractType))].getLatestCreator();\r\n  }\r\n  function addHolder(string contractType,iBaseHolder holder) public onlyOwner{\r\n     holdersByType[uint256(keccak256(contractType))]=holder;\r\n  }\r\n}\r\n\r\ncontract iCreator is iVersionable{\r\n\r\n    function iCreator(iBaseHolder _holder)public iVersionable(1,_holder){\r\n\r\n    }\r\n\r\n    function createDocument(address _curator ) public returns (iDocument _newDocument) {\r\n        _newDocument = new iDocument(_curator,getHolder());\r\n\r\n    }\r\n}\r\n\r\ncontract iDocument is iVersionable {\r\n    address public  owner;\r\n\r\n    function iDocument(address _owner, iBaseHolder _daoCreator) public iVersionable(1,_daoCreator) {\r\n        owner=_owner;\r\n    }\r\n\r\n    function wantSameContract(  address _newOwner) public returns (iDocument _successor) {\r\n        if(successor.getVersion()==0){\r\n            iDocument newDoc = createNewDoc(_newOwner);\r\n            successor=newDoc;\r\n            _successor=newDoc;\r\n        }\r\n    }\r\n\r\n    function getOwner() public view returns  (address _owner){\r\n        _owner=owner;\r\n    }\r\n\r\n    function createNewDoc(address _newOwner) internal returns (iDocument _newDoc) {\r\n       iBaseHolder holder = getHolder();\r\n\r\n       iCreator creator = holder.getLatestCreator();\r\n\r\n        _newDoc =creator.createDocument(_newOwner);\r\n           holder.registerDocument(_newOwner, _newDoc);\r\n    }\r\n\r\n}\r\n",
  "sourcePath": "D:\\blockchainDiploma\\truffletest\\contracts\\Astral.sol",
  "compiler": {
    "name": "solc",
    "version": "0.4.19+commit.c4cbbb05.Emscripten.clang"
  },
  "schemaVersion": "2.0.0",
  "updatedAt": "2018-04-08T15:43:07.155Z"
}